:1000000012C01FC01EC01DC01CC01BC01AC01AC019
:100010004CC017C016C015C014C013C012C011C008
:1000200010C00FC00EC011241FBECFEDCDBF20E009
:10003000A0E6B0E001C01D92A838B207E1F79ED05B
:10004000B6C1DECF1F920F920FB60F9211242F93DD
:100050003F934F935F938F939F93EF93FF932BB1B6
:100060003CB128718091620090E001968F709927D1
:100070004091610050E08417950739F08093620049
:10008000FC01EB59FF4F308301C022E02093600058
:10009000FF91EF919F918F915F914F913F912F91A0
:1000A0000F900FBE0F901F9018951F920F920FB6D2
:1000B0000F9211248F939F93EF93FF93909164007D
:1000C00080916300981771F08091630090E0019631
:1000D0008F70992780936300FC01EB58FF4F80815C
:1000E0008CB901C05598FF91EF919F918F910F901E
:1000F0000FBE0F901F90189510926400109263002D
:10010000109262001092610012B88FE589B988E9F7
:100110008AB986E083B90895909162008091610068
:100120009817A1F08091610090E001968F70992757
:1001300080936100FC01EB59FF4F208180916000AA
:1001400090E0982F8827820F911D089580E091E01C
:1001500008952091640030E02F5F3F4F2F703327C8
:100160004091630050E024173507D1F3F901EB58B3
:10017000FF4F808320936400559A0895BA9AC298DD
:10018000B99AC198909AB8DF7894C0E084E6B82E06
:10019000DAE098EEC92E93E0D92E24E6E22EF12C77
:1001A0000AE010E065E870E087E890E0A9D0B4DFED
:1001B00090FDF8CFC13041F08639910511F0C0E0D3
:1001C000F1CFC29AC1E0EECF4497C9F7C29AC19A63
:1001D00086E9BFDF84E1BDDF809187006B2DC7D04A
:1001E000805DB7DF809187006D2FC1D0805DB1DF6A
:1001F000809187006D2FBBD080E3890FAADF8EE24C
:10020000A8DF8091850090918600B601BCD080E384
:10021000860F9FDF8091850090918600B701B3D053
:10022000CB01B801B0D0805D94DF809185009091C2
:100230008600B801A8D0CB01B801A5D0805D89DFC8
:100240008091850090918600B8019DD0805D81DF0E
:100250008FEF9FE80197F1F700C00000C198AFCF82
:10026000C098B89A89EE96E00197F1F70000B89827
:10027000EDEDF0E03197F1F786B3ECE0F6E0319781
:10028000F1F7000081700895C098B89A95E09A95AA
:10029000F1F78111B8988DED90E00197F1F7B898DA
:1002A0000895C098B89A85E08A95F1F7B89895E4D2
:1002B0009A95F1F786B39DED9A95F1F7000081705C
:1002C0000895CF93DF93D82FC9E0C15029F08D2F27
:1002D0008170DADFD695F9CFDF91CF910895CF9372
:1002E000DF93D9E0C0E0D15039F0DBDF8795882774
:1002F0008795C695C82BF7CF8C2FDF91CF910895A6
:10030000EF92FF920F931F93CF937C018B01F89490
:10031000A7DF8CECD6DF84E4D4DFC3DF8823E9F3E6
:100320009FDF8CECCEDF8EEBCCDFD9DFC82FD7DFA1
:10033000789487708295807F9C2F92959F70892BEF
:10034000F70180838C2F8F7061E708D0F8018083DC
:10035000CF911F910F91FF90EF900895002480FDA1
:10036000060E660F11F08695D1F7802D0895991B22
:1003700079E004C0991F961708F0961B881F7A959C
:10038000C9F780950895AA1BBB1B51E107C0AA1F9E
:10039000BB1FA617B70710F0A61BB70B881F991F26
:1003A0005A95A9F780959095BC01CD010895F894D0
:0203B000FFCF7D
:00000001FF
