:100000000C943E000C945B000C945B000C945B0021
:100010000C945B000C945B000C945B000C945B00F4
:100020000C945B000C945B000C945B000C945B00E4
:100030000C945B000C945B000C945B000C945B00D4
:100040000C945B000C945B000C945B000C945B00C4
:100050000C945D000C9492000C9435020C945B009F
:100060000C945B000C945B000C945B000C945B00A4
:100070000C9408010C943D010C94260211241FBE1F
:10008000CFEFD8E0DEBFCDBF21E0A6E0B1E001C0F8
:100090001D92A439B207E1F711E0A0E0B1E0E6EC6F
:1000A000F6E002C005900D92A630B107D9F70E9484
:1000B000B3010C9461030C9400001F920F920FB6D1
:1000C0000F9211242F933F934F935F938F939F939E
:1000D000EF93FF932091C0003091C600287180916A
:1000E0004D0190E001968F71992740914C0150E0AD
:1000F0008417950739F080934D01FC01E05BFE4FBA
:10010000308301C022E020934B01FF91EF919F913A
:100110008F915F914F913F912F910F900FBE0F9054
:100120001F9018951F920F920FB60F9211248F9364
:100130009F93EF93FF9390914F0180914E019817F9
:1001400079F080914E0190E001968F71992780930C
:100150004E01FC01E059FE4F80818093C60005C02E
:100160008091C1008F7D8093C100FF91EF919F919D
:100170008F910F900FBE0F901F90189510924F0106
:1001800010924E0110924D0110924C011092C50038
:100190008FE58093C40088E98093C10086E0809356
:1001A000C200089590914D0180914C019817A1F0E3
:1001B00080914C0190E001968F71992780934C01BA
:1001C000FC01E05BFE4F208180914B0190E0982F75
:1001D0008827820F911D089580E091E00895209175
:1001E0004F0130E02F5F3F4F2F71332740914E0179
:1001F00050E024173507D1F3F901E059FE4F808311
:1002000020934F018091C10080628093C1000895C6
:100210001F920F920FB60F9211242F933F934F937B
:100220005F938F939F93EF93FF932091C80030913A
:10023000CE0028718091080190E001968F71992776
:100240004091070150E08417950739F08093080129
:10025000FC01E55FFE4F308301C022E020930601E0
:10026000FF91EF919F918F915F914F913F912F91CE
:100270000F900FBE0F901F9018951F920F920FB600
:100280000F9211248F939F93EF93FF9390910A0104
:1002900080910901981779F08091090190E0019609
:1002A0008F71992780930901FC01E55DFE4F8081E4
:1002B0008093CE0005C08091C9008F7D8093C900D6
:1002C000FF91EF919F918F910F900FBE0F901F9014
:1002D000189510920A0110920901109208011092CB
:1002E00007011092CD008FE58093CC0088E98093C0
:1002F000C90086E08093CA0008959091080180911A
:1003000007019817A1F08091070190E001968F7185
:10031000992780930701FC01E55FFE4F20818091C2
:10032000060190E0982F8827820F911D089580E0A4
:1003300091E0089520910A0130E02F5F3F4F2F7127
:1003400033274091090150E024173507D1F3F90113
:10035000E55DFE4F808320930A018091C900806291
:100360008093C900089580EC8AB95F9884B1836056
:1003700084B92898299A589A5A9A80E895E20E9456
:10038000BE0080E895E20E9469017894C0E00E9476
:10039000D20090FDFCCFC13089F058F0C330A9F0F5
:1003A000C430A9F7082F99270E944002EC0110E001
:1003B00019C0C1E08639910549F7E9CF8F3F910512
:1003C00011F4C3E0E4CFC4E0E2CF893A9105E9F744
:1003D000DECF101761F0FE01E10FF11D80831F5F7A
:1003E000101728F40E94D20090FDFACFF2CF80912E
:1003F000C90080648093C900299A86E90E949A0105
:1004000084E10E949A012998289A10E007C01A30C6
:1004100051F00E94EF001F5F1A3028F40E947D0106
:1004200090FDFACFF4CF5E9A289A8E01085F1F4F95
:1004300089910E94EF000C171D07D1F78FEF9FE8FD
:100440000197F1F700C000002898A0CF1F920F92EB
:100450000FB60F9211248F938BB180588BB98F9167
:100460000F900FBE0F901F9018951F920F920FB60E
:100470000F9211245E9A0F900FBE0F901F90189547
:100480000F931F93CF93DF938230910510F482E096
:1004900090E0E0919201F091930120E030E0A0E043
:1004A000B0E0309719F140815181028113814817E2
:1004B0005907C8F08417950769F4109731F0129620
:1004C0000C93129713961C9327C0009392011093DC
:1004D000930122C02115310519F04217530718F472
:1004E0009A01BD01EF01DF01F801DBCF21153105D4
:1004F000F9F0281B390B2430310580F48A819B8167
:100500006115710521F0FB019383828304C09093F0
:10051000930180939201FE01329644C0FE01E20FE6
:10052000F31F8193919322503109398328833AC074
:100530002091900130919101232B41F420910201EF
:10054000309103013093910120939001209100019B
:10055000309101012115310541F42DB73EB740918D
:10056000040150910501241B350BE0919001F0919D
:100570009101E217F307A0F42E1B3F0B2817390750
:1005800078F0AC014E5F5F4F2417350748F04E0FEF
:100590005F1F50939101409390018193919302C00A
:1005A000E0E0F0E0CF01DF91CF911F910F9108952E
:1005B000CF93DF93009709F481C0FC013297138237
:1005C0001282A0919201B0919301109781F4208141
:1005D0003181820F931F2091900130919101281752
:1005E000390751F5F0939101E093900167C0ED0157
:1005F00020E030E0CE17DF0740F44A815B819E01A6
:1006000041155105F1F0EA01F5CFD383C283408152
:100610005181840F951FC817D90759F48881998192
:10062000840F951F0296918380838A819B81938397
:1006300082832115310529F4F0939301E09392010F
:100640003DC0E901FB83EA8349915991C40FD51F4D
:10065000EC17FD0761F480819181840F951F02964C
:10066000E90199838883828193819B838A83E0E077
:10067000F0E012968D919C911397009719F0FD016F
:10068000DC01F7CF8D919C9111979D012E5F3F4F1B
:10069000820F931F20919001309191012817390703
:1006A00069F4309729F4109293011092920102C0DC
:1006B00013821282B0939101A0939001DF91CF91A8
:0606C0000895F894FFCF3D
:0606C60000009401200079
:00000001FF
